:100000000C942A000C9434000C9434000C943400AA
:100010000C9434000C9434000C9434000C94340090
:100020000C9434000C9434000C9434000C94340080
:100030000C9434000C9434000C9434000C94340070
:100040000C9434000C9434000C9434000C94340060
:100050000C94340011241FBECFE5D8E0DEBFCDBF25
:100060000E9436000C944B000C940000CC24C394E6
:10007000E12C00E020E140E260E480E80E944700DB
:1000800080E001C08BBB779BFDCF8FB1FCCF81E6B9
:0A0090008DB91EB80895F894FFCF53
:00000001FF
