:100000000C942A000C9434000C9434000C943400AA
:100010000C9434000C9434000C9434000C94340090
:100020000C9434000C9434000C9434000C94340080
:100030000C9434000C9434000C9434000C94340070
:100040000C9434000C9434000C9434000C94340060
:100050000C94340011241FBECFE5D8E0DEBFCDBF25
:100060000E9436000C941A010C940000CC24C39416
:10007000E12C00E020E140E260E480E80E94DF0043
:1000800068EB7BE080E090E00E948B0068EE73E01C
:1000900080E090E00E948B0086E68FB9779BFECFD0
:1000A00060ED77E080E090E00E948B0088E88FB9F7
:1000B000779BFECFFFCF813081F028F08230B9F0FE
:1000C000833041F51EC08AB3962F909589238ABB51
:1000D0008AB36423682B6ABB089587B3962F9095E3
:1000E000892387BB87B36423682B67BB089584B3D8
:1000F000962F9095892384BB84B36423682B64BBBB
:10010000089581B3962F9095892381BB81B3642391
:10011000682B61BB08958F929F92AF92BF92EF922E
:10012000FF920F931F93CF93DF9300D000D0CDB7F2
:10013000DEB719821A821B821C8261157105810546
:10014000910519F52DC089809A80AB80BC80AFEFF6
:100150008A1A9A0AAA0ABA0A89829A82AB82BC824D
:100160002150310981F74150510911F09F01EBCF26
:100170000F5F1F4F4801AA2497FCA094BA2C861643
:100180009706A806B90650F00BC000E010E00F2E4D
:10019000F3E1EF2EF12CF02DE0E1F0E0A701E6CF46
:1001A0000F900F900F900F90DF91CF911F910F91B3
:1001B000FF90EF90BF90AF909F908F900895CF9257
:1001C000EF920F939DB1892B682B462B422B042B6A
:1001D000E02ACE28CDB82031A9F44FEF60E281E0CB
:1001E0000E945B0040E060E481E00E945B004FEF12
:1001F00060E881E00E945B004FEF60E181E00E94D7
:100200005B0014C040E060E281E00E945B004FEFC1
:1002100060E481E00E945B0040E060E881E00E94D1
:100220005B0040E060E181E00E945B000F91EF9095
:08023000CF900895F894FFCF70
:00000001FF
